:1010B400202020202020202020202020202020202C
:1010C40000323134373438333634370053796E7460
:1010D4006178204552524F52004F766572666C6FAC
:0810E40077204552524F5200E3
:101154001023373839FD343536783132332D203089
:101164003D2B103320202020202020202020202050
:0D1174002020202001220001570001210051
:0711AF0012122F7F017E00E8
:1011B600E4FDFCC3ED9FEC9E5015E4FBFA0BBB006F
:0F11C600010AEB647B4A70F50DBD00010C80E45B
:0111D50022F7
:10122F00C2B3C2B28FA0D2B4C2B47F017E0002118A
:01123F00B6F8
:10124000C2B3D2B28FA0D2B4C2B47F017E00021169
:01125000B6E7
:0C1251007F0112122F7F027E000211B6F6
:1011FB00C2B2C2B37F327E001211B67F381211AF6A
:0D120B007F0C1211AF7F061211AF021251BD
:10121800A905EF24FE600804700CE9247F8003E927
:0712280024BFFF12122F2268
:0C125D007F0F12122F7F017E000211B6DD
:0C1269007F0E12122F7F017E000211B6D2
:1011D6008B0B8A0C890DAB0BAA0CA90D12053B6073
:1011E60013050DE50D7002050C14F912053BFF12EF
:0511F600124080E2221E
:04102A00AB07AA0660
:10102E00E4F5687C007D0AAF03AE02120554ED2490
:10103E0030FFAE68056874582EF8A6077C007D0A4E
:10104E00AF03AE02120554AA06AB07EB4A70D4E505
:10105E0068600E156874582568F8E6FF1212408015
:01106E00EE93
:01106F00225E
:080FB8008F768E758D748C7329
:100FC00012023F8E798F7AAC77AD78E41202068FE9
:100FD000708E6F8D6E8C6D7F007E007D207C411247
:100FE0000D7BC004C005C006C007AC79AD7AE41221
:100FF0000206A804A905AA06AB07AF76AE75AD74C4
:10100000AC73120006D003D002D001D0001200FB56
:1010100012023F8F828E83AF7AAE7912102A7F2E12
:0A102000121240AF82AE8302102AC4
:1010EC0074FFFFFEC294C295C296C297D290D29161
:1010FC00D292D293209305E4FEFF80192092067EB3
:10110C00007F0180102091067E007F0280072090D6
:05111C00047E007F03CA
:0111210022AB
:10112200D294D295D296D297C290C291C292C293D1
:10113200209705E4FEFF80192096067E007F01803D
:10114200102095067E007F0280072094047E007F97
:011152000399
:011153002279
:1011820012125178337C007D007BFF7A1079B47E95
:10119200007F101205157E007F147D007B007A000F
:0D11A200794312063CE4F522F557F52122B1
:10073600E4F50EF50DF50CF50BF512F511F510F5C2
:100746000FF516F515F514F513751720F518751927
:10075600FFF51A751B01F51CAD1CED3395E0FCC3C6
:10076600ED95577480F86C984003020A8874432507
:100776001CF8E6FFC394305003020A4EEFD39439B7
:100786004003020A4EE51C60102442F8E6FF647836
:100796006004EFB4FD03751801E51A6401704B851A
:1007A600161285151185141085130FE517642D6033
:1007B60005E517B4FD24850E16850D15850C1485E3
:1007C6000B1385120E85110D85100C850F0B8516E2
:1007D6001285151185141085130FE4F516F515F518
:1007E60014F513F51AF5180208BE7443251CF8E62D
:1007F60024D0FFE434FFFEE4FCFDE5122FF512E5FC
:10080600113EF511ED3510F510EC350FF50FE557E6
:1008160014651C60557444251CF8E6FFC3943040EB
:1008260049EFD394395043AF12AE11AD10AC0FE47B
:100836007B0AFAF9F81205A98F128E118D108C0F0A
:10084600051C7443251CF8E624D0FFE434FFFEE4BF
:10085600FCFDE5122FF512E5113EF511ED3510F50B
:1008660010EC350FF50F051B80A4D3E51B648094AF
:100876008A40037FFE22E51B640A703978337C00C8
:10088600FD7BFF7A1079C5FE7F0A120515851C1BB4
:10089600E4F51CE51B251C243AF8E6FF7433251CF9
:1008A600F8E6FEEFD39E40037FFE22051CE51CB44E
:1008B6000AE1851B1C751B01E55714651C60227433
:1008C60044251CF8E6FF64786004EFB4FD13E518D0
:1008D600700F850E16850D15850C14850B1375176F
:1008E60020E517642B7052FFFEFDFCAB12AA11A97E
:1008F60010A80FD3120606402574FF9512FF74FF49
:100906009511FE74FF9510FD747F950FFCAB0EAA32
:100916000DA90CA80BD312060640037FFE22E50E96
:100926002512F50EE50D3511F50DE50C3510F50C16
:10093600E50B350FF50B020A21E517642D7051FF03
:10094600FEFDFCAB12AA11A910A80FD31206064091
:1009560023E5122401FFE43511FEE43510FDE50F11
:100966003480FCAB0EAA0DA90CA80BC312060650C8
:10097600037FFE22C3E50E9512F50EE50D9511F5E2
:100986000DE50C9510F50CE50B950FF50B020A21FC
:10099600E51764787046AF12AE11AD10AC0FEC4D92
:1009A6004E4F6023AB12AA11A910A80F74FFFFFEC9
:1009B600FD7C7F121070AB0EAA0DA90CA80BD312EA
:1009C600060640037FFE22AF0EAE0DAD0CAC0BABA0
:1009D60012AA11A910A80F1205A98029E517B4FDBE
:1009E6002EAF12AE11AD10AC0FEC4D4E4F70037F13
:1009F600FF22AF0EAE0DAD0CAC0BAB12AA11A910B7
:100A0600A80F1210708F0E8E0D8D0C8C0B800C851E
:100A1600120E85110D85100C850F0BE518640170FB
:100A2600537444251CF8E6FF64786017EF64FD6094
:100A360012E519F4600D74432519F8E6F517751AD1
:100A460001151CE4F518802CE51C60102444F8E61A
:100A5600FFC394304006EFD3943940037FFF2274DE
:100A660043251CF8E6FF642B6004EFB42D03851CB8
:100A760019E6F517E4F512F511F510F50F051C0248
:100A8600075E78337C007D007BFF7A1079B47E00A8
:100A96007F10120515AF0EAE0DAD0CAC0BEC4D4E26
:100AA6004F700B152274332522F876308073AC0B09
:100AB600EC33501374FFFFFEFDFCAB0EAA0DA90C20
:100AC600A80B1205A98041850E12850D11850C1003
:100AD600850B0FAF12AE11AD10AC0FEC4D4E4F6043
:100AE60031E47B0AFAF9F8121070EB2430FF152274
:100AF60074332522F8A607AF12AE11AD10AC0FE481
:100B06007B0AFAF9F81210708F128E118D108C0F65
:100B160080C1AC0BEC335009152274332522F876CC
:030B26002D7F0020
:010B290022A9
:100C5F001211FB1210EC8F08E508F47003020D5B04
:100C6F00E522B40F1D75337F750A017434250AF818
:100C7F00E6FF7433250AF8A607050AE50AB40EEB5A
:100C8F0015221211228F09E50925E025E0242325DD
:100C9F0008F8E6B42006121182020D5BE50925E083
:100CAF0025E024232508F8E6643D704E75221012C6
:100CBF0007368F0AE50AB4FF121211827D037F01F6
:100CCF001212187BFF7A1079D08024E50AB4FE1235
:100CDF001211827D027F011212187BFF7A1079DDCB
:100CEF00800D7D017F021212187B007A007933127A
:100CFF0011D67522107521018052E521B40103121E
:100D0F001182E557C394145040E50925E025E024EE
:100D1F00232508F8E6FFAE22052274332EF8A60726
:100D2F00E50925E025E024232508F8E6FFAE570561
:100D3F005774432EF8A6077D017F011212187B000E
:100D4F007A0079331211D6800375220FE52204FD44
:100D5F007F01121218E521B40105121269800312E6
:0C0D6F00125D7F647E001211B6020C625F
:100003000202ABE86480F8E933E83360110460F07E
:10001300ED33EC337009E8FCE9FDEAFEEBFF220463
:1000230060DED3EB9FEA9EE99DE8C2E78CF0C2F75E
:1000330095F0400CE8CCF8E9CDF9EACEFAEBCFFB2A
:1000430012027685D0F05804700320D5B3E804700B
:10005300075002B2D50202B592D5EC0460F7E4CCA6
:10006300C0E0C398F8603B94186008400DD0E0FBF3
:1000730002028DE4FBFAC9FC8028E830E406E4C9F7
:10008300FBE4CAFCE830E305E4C9CACBFCE8540747
:100093006010F8C3E913F9EA13FAEB13FBEC13FC52
:1000A300D8F130F52FC3E49CFCEF9BFFEE9AFEEDF5
:1000B30099FDD0E0FBEF4E4D4C701222DB030202A0
:1000C300B2EC2CFCEF33FFEE33FEED33FDED30E706
:1000D300EB02028DEF2BFFEE3AFEED39FDD0E0FB94
:1000E30050130BBB00030202B5ED13FDEE13FEEF3D
:0800F30013FFEC13FC02028D67
:1000FB00EC4D6011E8497017ED33EC3304600DE4FF
:10010B00FCFFFEFD22E933E8330470F80202AB1268
:10011B00027658046009E4CC248150062850090269
:10012B0002B52840030202B2C0E0EB4A7044B9802A
:10013B0006D0E0FB0202A1EF4E701CBD8008EBFF66
:10014B00EAFEE9FD80EBE98DF0A4FEE5F00201E4A7
:10015B00E9CDF9EAFEEBFFEF89F0A4FCE5F0CE89DF
:10016B00F0A42EFFE435F0CD89F0A42DFEE435F09C
:10017B008067EF4E7005BD80D780C3EF8BF0A4ACCA
:10018B00F0EE8BF0A42CFCE435F0F8EF8AF0A42C05
:10019B00E5F038FCE433CB8DF0A42CFCE5F03BF818
:1001AB00EE8AF0A42CFCE5F038F8E433CF89F0A408
:1001BB002CFCE5F038CF3400CE89F0A42FFFE5F00E
:1001CB003EFEE433C98DF0A42EFEE5F039CD8AF066
:1001DB00A42FFFE5F03EFEE43DFD33D0E0FB5007DE
:1001EB000BBB000F0202B5EC2CFCEF33FFEE33FE22
:0601FB00ED33FD02028D50
:1002010075F020800E75F010800575F0087D007E78
:10021100007F003392D530D5031205F8EC3340103E
:10022100EF33FFEE33FEED33FDEC33FCD5F0ED2281
:0E023100E5F0247EA2D513CC92E7CDCEFF22BD
:10023F00EDD2E7CD33EC3392D524814006E4FFFEB7
:10024F00FDFC22FCE4CFCECDCC24E0501174FF8016
:10025F00EDC3CC13CCCD13CDCE13CECF13CF0470B3
:07026F00F030D5DE0205F8B6
:100D7B008F6C8E6B8D6A8C69E4FFFE7D807C3FAB44
:100D8B006CAA6BA96AA8691202DA7009AF6CAE6B18
:100D9B00AD6AAC6922AF6CAE6BAD6AAC691202C0C6
:100DAB00FBAF70AE6FAD6EAC6D1202C0FFBF010832
:100DBB00E4FFFE7D807C3F22EF64046022EB640441
:100DCB00601DBB0127E4FFFEFDFCAB70AA6FA96E93
:100DDB00A86D1202DA60084006E4FFFEFDFC2274E7
:100DEB00FFF570F56FF56EF56D020E89E4F571F593
:100DFB0072FFFEFDFCAB6CAA6BA96AA8691202DA42
:100E0B00504BAF70AE6FAD6EAC6D12023F8E718FEB
:100E1B0072AC71AD72EC120206C8ECC8C9EDC9CA4E
:100E2B00EECACBEFCBAF70AE6FAD6EAC6D120006F2
:100E3B00E4FBFAF9F81202DA70A5AF6CAE6BAD6A8F
:100E4B00AC691203478F6C8E6B8D6A8C69AF6CAE7D
:100E5B006BAD6AAC69120B5EAB70AA6FA96EA86D15
:100E6B001200FB120ECA8F708E6F8D6E8C6DE57239
:100E7B0030E00B1203478F708E6F8D6E8C6DAF70E1
:070E8B00AE6FAD6EAC6D22ED
:10027600E9D2E7C933E833F892D5EDD2E7CD33ECCE
:0702860033FC5002B2D52247
:10028D00EC30E7100FBF000C0EBE00080DBD0004D2
:10029D000BEB6014A2D5EB13FCED92E7FD2274FF7E
:1002AD00FCFDFEFF22E480F8A2D574FF13FC7D80D7
:0302BD00E480EFEB
:1002C000ED33EC33601004700FED547F7005740251
:0A02D00092E0227404220422E422CA
:1002DA0074F8CC6480CCC86480C8F582046043C3D7
:1002EA00EB9FF5F0EA9E42F0E99D42F0E89C45F06A
:1002FA0060305018E5825FFFE582F42B5582FB508F
:10030A00210ABA001D09B90019088016E5825BFBAB
:10031A00E582F42F5582FF50090EBE00050DBD007F
:10032A00010CC3EB9FF5F0EA9E42F0E99D42F0E82A
:0D033A009C45F06007CC4820E701B3EC22A1
:10034700ED33EC33600A047003BD8004ECB2E7FCC4
:010357002283
:100E920033DA929E35B16011377FE5FE39218489BC
:100EA2003AAEC3FF3C1D955B3D6358473E75FDF06E
:100EB2003F3172183F800000C2D50202B50202AB78
:100EC200BD80FA50F30202B2ED33EC330460F17BE1
:100ED2003B7AAA79B8783F1200FBED33EC3392D516
:100EE200247B5011A2D570DB500BED4480240450BA
:100EF20004A2D580CEEFFBEEFAEDF9ECF812023F38
:100F0200EFF582F404FC12020B12000AC082900E6A
:100F1200927409120407ED33CC33D0F092D525F048
:0A0F2200A2D57001C313CC13FD2209
:100B2A003E9248DA3ECCCCCD3F2AAAAB4000000028
:100B3A003F8000003F9837F03FB504F33FD744FCAD
:100B4A003E3172173EB172173F0515913EDE5BD9F1
:100B5A00D2008002C200EDD2E7F8CD33EC33047044
:100B6A000BBD800592D50202B50202AB40FBD3143D
:100B7A0060F2F5F07C3FEE7A00C39496C8948B40FD
:100B8A00230AC89469C8941A401A0AC89468C8946F
:100B9A001F40110AC8945AC89425400805F07A00E3
:100BAA00CDC2E7CDC0F08C7B8D7C8E7D8F7EEA2313
:100BBA0023C0E0243AF582E4340BF58312062C12A2
:100BCA00000AECC0E0EDC0E0EEC0E0EFC0E01206C3
:100BDA001CA87BA97CAA7DAB7E120006D0E0FBD0C4
:100BEA00E0FAD0E0F9D0E0B2E7F812035B8C7B8D33
:100BFA007C8E7D8F7E900B2A74031203F8A87BA942
:100C0A007CAA7DAB7E1200FBD0E0600F2446F58201
:100C1A00E4340BF58312062C12000A8C7B8D7C8E31
:100C2A007D8F7ED0E0C3947FFDE49400FC1202061F
:100C3A007B187A727931783F1200FBA87BA97CAACB
:100C4A007DAB7E12000A30000B7BD97A5B79DE78A5
:050C5A003E1200FB2228
:100358000202B5EC5D046005E8590470030202ABC3
:10036800120276580460F6EC4860F2EC7004FDFE68
:10037800FF22C860DB2481C85009C3986002500678
:100388000202B29850CAF582E9294B4A7005AB823D
:100398000202A175F0007C1A7880C3EF9BEE9AEDFB
:1003A80099400DC3EF9BFFEE9AFEED99FDE842F0F0
:1003B800DC23ACF0D0E0FFD0E0FED0E0FDAB822043
:1003C800E7101BEB60BAEC2CFCEF33FFEE33FEEDCD
:1003D80033FD02028DE803F830E705C0F075F00040
:1003E800EF2FFFEE33FEED33FD40B830E7C280AAB1
:1003F800C0E0EFFBEEFAEDF9ECF81200FBD0E0F507
:10040800F0EFFBEEFAEDF9ECF812061CA3A3A3A398
:10041800E8C0E0E9C0E0EAC0E0EBC0E0C0F01200EC
:10042800FB12062CA3A3A3A312000AD0F0D0E0FB72
:0D043800D0E0FAD0E0F9D0E0F8D5F0D42201
:03000000020F2CC0
:0C0F2C00787FE4F6D8FD75817E020F731B
:10044500E709F608DFFA8046E709F208DFFA803E99
:1004550088828C83E709F0A3DFFA8032E309F60886
:10046500DFFA8078E309F208DFFA807088828C83EE
:10047500E309F0A3DFFA806489828A83E0A3F608A2
:10048500DFFA805889828A83E0A3F208DFFA804C7C
:1004950080D280FA80C680D4806980F28033801053
:1004A50080A680EA809A80A880DA80E280CA8033BC
:1004B50089828A83ECFAE493A3C8C582C8CCC58334
:1004C500CCF0A3C8C582C8CCC583CCDFE9DEE78004
:1004D5000D89828A83E493A3F608DFF9ECFAA9F083
:1004E500EDFB2289828A83ECFAE0A3C8C582C8CCD9
:1004F500C583CCF0A3C8C582C8CCC583CCDFEADEF2
:10050500E880DB89828A83E493A3F208DFF980CC53
:1005150088F0EF60010E4E60C388F0ED2402B4044C
:100525000050B9F582EB2402B4040050AF232345F3
:060535008223900495737F
:10053B00BB010689828A83E0225002E722BBFE02BE
:09054B00E32289828A83E49322F1
:10055400BC000BBE0029EF8DF084FFADF022E4CC8B
:10056400F875F008EF2FFFEE33FEEC33FCEE9DEC54
:10057400984005FCEE9DFE0FD5F0E9E4CEFD22ED9A
:10058400F8F5F0EE8420D21CFEADF075F008EF2FE4
:10059400FFED33FD4007985006D5F0F222C398FDD5
:0505A4000FD5F0EA2272
:1005A900E88FF0A4CC8BF0A42CFCE98EF0A42CFCF1
:1005B9008AF0EDA42CFCEA8EF0A4CDA8F08BF0A46F
:1005C9002DCC3825F0FDE98FF0A42CCD35F0FCEBCE
:1005D9008EF0A4FEA9F0EB8FF0A4CFC5F02ECD3993
:0F05E900FEE43CFCEAA42DCE35F0FDE43CFC2200
:10107000C2D5E830E70FB2D5E4C39BFBE49AFAE4AB
:1010800099F9E498F8EC30E717B2D51210A61206D9
:10109000A4E4C39BFBE49AFAE499F9E498F880038A
:1010A0001206A430D50DE4C39FFFE49EFEE49DFD2F
:0410B000E49CFC229E
:0E05F800C3E49FFFE49EFEE49DFDE49CFC2214
:10060600EB9FF5F0EA9E42F0E99D42F0EC6480C86B
:0606160064809845F0220B
:10061C00E493FC740193FD740293FE740393FF2224
:10062C00E493F8740193F9740293FA740393FB2224
:10063C00EF4E6012EF60010EEDBB010B89828A83D5
:10064C00F0A3DFFCDEFA2289F05007F709DFFCA9E2
:0C065C00F022BBFEFCF309DFFCA9F02239
:100F3800020C5FE493A3F8E493A34003F68001F264
:100F480008DFF48029E493A3F85407240CC8C333BA
:100F5800C4540F4420C8834004F456800146F6DF89
:100F6800E4800B0102040810204080901154E47EB4
:100F7800019360BCA3FF543F30E509541FFEE4937E
:100F8800A360010ECF54C025E060A840B8E493A345
:100F9800FAE493A3F8E493A3C8C582C8CAC583CA70
:100FA800F0A3C8C582C8CAC583CADFE9DEE780BE28
:01118100006D
:1006680075F008758200EF2FFFEE33FECD33CDCC49
:1006780033CCC58233C5829BED9AEC99E5829840CC
:100688000CF582EE9BFEED9AFDEC99FC0FD5F0D6A9
:10069800E4CEFBE4CDFAE4CCF9A88222B800C1B9D3
:1006A8000059BA002DEC8BF084CFCECDFCE5F0CB11
:1006B800F97818EF2FFFEE33FEED33FDEC33FCEB4A
:1006C80033FB10D703994004EB99FB0FD8E5E4F905
:1006D800FA227818EF2FFFEE33FEED33FDEC33FCF2
:1006E800C933C910D7059BE99A4007EC9BFCE99AE6
:1006F800F90FD8E0E4C9FAE4CCFB2275F010EF2F2B
:10070800FFEE33FEED33FDCC33CCC833C810D7072A
:100718009BEC9AE899400AED9BFDEC9AFCE899F865
:0E0728000FD5F0DAE4CDFBE4CCFAE4C8F922F8
:00000001FF
