:10107E002020202020202020202020202020202062
:0E108E000053796E746178204552524F520023
:100FD7001023373839FD343536783132332D203008
:100FE7003D2B1033202020202020202020202020CF
:0D0FF70020202020012200015B00012100CC
:071032001210D07F017E00C7
:10103900E4FDFCC3ED9FEC9E5015E4FBFA0BBB00ED
:0F104900010AEB647B4A70F50DBD00010C80E4D9
:011058002275
:1010D000C2B3C2B28FA0D2B4C2B47F017E000210EC
:0110E00039D6
:1010E100C2B3D2B28FA0D2B4C2B47F017E000210CB
:0110F10039C5
:0C10F2007F011210D07F027E0002103936
:10109C00C2B2C2B37F327E001210397F38121032C6
:0D10AC007F0C1210327F061210320210F27B
:1010B900A905EF24FE600804700CE9247F8003E988
:0710C90024BFFF1210D0222A
:0C10FE007F0F1210D07F017E000210391D
:0C110A007F0E1210D07F017E0002103911
:101059008B0B8A0C890DAB0BAA0CA90D12053B60F1
:1010690013050DE50D7002050C14F912053BFF126D
:0510790010E180E222FD
:040EE500AB07AA06A7
:100EE900E4F56C7C007D0AAF03AE02120554ED24D3
:100EF90030FFAE6C056C745C2EF8A6077C007D0A89
:100F0900AF03AE02120554AA06AB07EB4A70D4E54B
:100F19006C600E156C745C256CF8E6FF1210E180AC
:010F2900EED9
:010F2A0022A4
:080E73008F7A8E798D788C775F
:100E7B0012023F8E7D8F7EAC7BAD7CE41202068F1F
:100E8B00748E738D728C717F007E007D207C41127D
:100E9B000B20C004C005C006C007AC7DAD7EE412BC
:100EAB000206A804A905AA06AB07AF7AAE79AD78FE
:100EBB00AC77120006D003D002D001D0001200FB99
:100ECB0012023F8F828E83AF7EAE7D120EE57F2E98
:0A0EDB001210E1AF82AE83020EE5B3
:100F6F0074FFFFFEC294C295C296C297D290D291DF
:100F7F00D292D293209305E4FEFF80192092067E31
:100F8F00007F0180102091067E007F028007209055
:050F9F00047E007F0349
:010FA400222A
:100FA500D294D295D296D297C290C291C292C29350
:100FB500209705E4FEFF80192096067E007F0180BC
:100FC500102095067E007F0280072094047E007F16
:010FD5000318
:010FD60022F8
:101005001210F278337C007D007BFF7A10797E7EAA
:10101500007F101205157E007F187D007B007A0089
:0D1025007943120626E4F522F55BF5212241
:10072000E4F50EF50DF50CF50BF512F511F510F5D8
:100730000FF516F515F514F513751720F51875193D
:10074000FFF51AF51BAD1BED3395E0FCC3ED955B92
:100750007480F86C98400302095B7443251BF8E62B
:10076000FFC39430500302091FEFD39439400302B2
:10077000091FE51B60102442F8E6FF64786004EF6F
:10078000B4FD03751801E51A6401704A85161285D7
:10079000151185141085130FE517642D6005E517F5
:1007A000B4FD24850E16850D15850C14850B138557
:1007B000120E85110D85100C850F0B8516128515EF
:1007C0001185141085130FE4F516F515F514F513BE
:1007D000F51AF518805C8034E55B14651B60537472
:1007E00044251BF8E6FFC394304047EFD3943950BB
:1007F00041AF12AE11AD10AC0FE47B0AFAF9F8125A
:1008000005A98F128E118D108C0F051B7443251BAB
:10081000F8E624D0FFE434FFFEE4FCFDE5122FF5FA
:1008200012E5113EF511ED3510F510EC350FF50F11
:1008300080A6E55B14651B60227444251BF8E6FF67
:1008400064786004EFB4FD13E518700F850E16850B
:100850000D15850C14850B13751720E517B42B1A8D
:10086000E50E2512F50EE50D3511F50DE50C3510EB
:10087000F50CE50B350FF50B8078E517B42D1BC390
:10088000E50E9512F50EE50D9511F50DE50C95109B
:10089000F50CE50B950FF50B8058E517B47815AFFF
:1008A0000EAE0DAD0CAC0BAB12AA11A910A80F1215
:1008B00005A98028E517B4FD2DAF12AE11AD10AC1F
:1008C0000FEC4D4E4F7002806AAF0EAE0DAD0CAC0A
:1008D0000BAB12AA11A910A80F120F2B8F0E8E0DA1
:1008E0008D0C8C0B800C85120E85110D85100C85DE
:1008F0000F0BE518640170557444251BF8E6FF647E
:10090000786017EF64FD6012E519F4600D744325FB
:1009100019F8E6F517751A01151BE4F518802EE590
:100920001B60102444F8E6FFC394304006EFD394D4
:100930003940057EFF7FFF227443251BF8E6FF64E4
:100940002B6004EFB42D03851B19E6F517E4F512AF
:10095000F511F510F50F051B020745AF0EAE0DADF5
:100960000CAC0BEC4D4E4F700B152274332522F856
:1009700076308073AC0BEC33501374FFFFFEFDFC3C
:10098000AB0EAA0DA90CA80B1205A98041850E1269
:10099000850D11850C10850B0FAF12AE11AD10AC8B
:1009A0000FEC4D4E4F6031E47B0AFAF9F8120F2B31
:1009B000EB2430FF152274332522F8A607AF12AEC0
:1009C00011AD10AC0FE47B0AFAF9F8120F2B8F125D
:1009D0008E118D108C0F80C1AC0BEC335009152299
:0A09E00074332522F8762DE4FEFFA3
:0109EA0022EA
:100C370012109C120F6F8F08E508F47003020D2D38
:100C4700E522B40F1D75337F750A017434250AF840
:100C5700E6FF7433250AF8A607050AE50AB40EEB82
:100C67001522120FA58F09E50925E025E024232584
:100C770008F8E6B42006121005020D2DE50925E057
:100C870025E024232508F8E6643D7048752210788E
:100C9700337C00FD7BFF7A10797EFE7F10120515ED
:100CA7001207208F0AE50AB4FF121210057D037F91
:100CB700011210B97BFF7A10798F800D7D017F02B9
:100CC7001210B97B007A007933121059752210750A
:100CD70021018052E521B40103121005E55BC3949D
:100CE700185040E50925E025E024232508F8E6FF0C
:100CF700AE22052274332EF8A607E50925E025E084
:100D070024232508F8E6FFAE5B055B74432EF8A69F
:100D1700077D017F011210B97B007A007933121029
:100D270059800375220FE52204FD7F011210B9E5F2
:100D370021B4010512110A80031210FE7F647E00A0
:060D4700121039020C3A03
:100003000202ABE86480F8E933E83360110460F07E
:10001300ED33EC337009E8FCE9FDEAFEEBFF220463
:1000230060DED3EB9FEA9EE99DE8C2E78CF0C2F75E
:1000330095F0400CE8CCF8E9CDF9EACEFAEBCFFB2A
:1000430012027685D0F05804700320D5B3E804700B
:10005300075002B2D50202B592D5EC0460F7E4CCA6
:10006300C0E0C398F8603B94186008400DD0E0FBF3
:1000730002028DE4FBFAC9FC8028E830E406E4C9F7
:10008300FBE4CAFCE830E305E4C9CACBFCE8540747
:100093006010F8C3E913F9EA13FAEB13FBEC13FC52
:1000A300D8F130F52FC3E49CFCEF9BFFEE9AFEEDF5
:1000B30099FDD0E0FBEF4E4D4C701222DB030202A0
:1000C300B2EC2CFCEF33FFEE33FEED33FDED30E706
:1000D300EB02028DEF2BFFEE3AFEED39FDD0E0FB94
:1000E30050130BBB00030202B5ED13FDEE13FEEF3D
:0800F30013FFEC13FC02028D67
:1000FB00EC4D6011E8497017ED33EC3304600DE4FF
:10010B00FCFFFEFD22E933E8330470F80202AB1268
:10011B00027658046009E4CC248150062850090269
:10012B0002B52840030202B2C0E0EB4A7044B9802A
:10013B0006D0E0FB0202A1EF4E701CBD8008EBFF66
:10014B00EAFEE9FD80EBE98DF0A4FEE5F00201E4A7
:10015B00E9CDF9EAFEEBFFEF89F0A4FCE5F0CE89DF
:10016B00F0A42EFFE435F0CD89F0A42DFEE435F09C
:10017B008067EF4E7005BD80D780C3EF8BF0A4ACCA
:10018B00F0EE8BF0A42CFCE435F0F8EF8AF0A42C05
:10019B00E5F038FCE433CB8DF0A42CFCE5F03BF818
:1001AB00EE8AF0A42CFCE5F038F8E433CF89F0A408
:1001BB002CFCE5F038CF3400CE89F0A42FFFE5F00E
:1001CB003EFEE433C98DF0A42EFEE5F039CD8AF066
:1001DB00A42FFFE5F03EFEE43DFD33D0E0FB5007DE
:1001EB000BBB000F0202B5EC2CFCEF33FFEE33FE22
:0601FB00ED33FD02028D50
:1002010075F020800E75F010800575F0087D007E78
:10021100007F003392D530D5031205F8EC3340103E
:10022100EF33FFEE33FEED33FDEC33FCD5F0ED2281
:0E023100E5F0247EA2D513CC92E7CDCEFF22BD
:10023F00EDD2E7CD33EC3392D524814006E4FFFEB7
:10024F00FDFC22FCE4CFCECDCC24E0501174FF8016
:10025F00EDC3CC13CCCD13CDCE13CECF13CF0470B3
:07026F00F030D5DE0205F8B6
:100B20008F708E6F8D6E8C6DE4FFFE7D807C3FAB91
:100B300070AA6FA96EA86D1202DA7009AF70AE6F5D
:100B4000AD6EAC6D22AF70AE6FAD6EAC6D1202C00B
:100B5000FBAF74AE73AD72AC711202C0FFBF01087F
:100B6000E4FFFE7D807C3F22EF64046022EB64049E
:100B7000601DBB0127E4FFFEFDFCAB74AA73A972E4
:100B8000A8711202DA60084006E4FFFEFDFC227440
:100B9000FFF574F573F572F571020C2EE4F575F539
:100BA00076FFFEFDFCAB70AA6FA96EA86D1202DA8B
:100BB000504BAF74AE73AD72AC7112023F8E758F35
:100BC00076AC75AD76EC120206C8ECC8C9EDC9CAA0
:100BD000EECACBEFCBAF74AE73AD72AC7112000640
:100BE000E4FBFAF9F81202DA70A5AF70AE6FAD6EE1
:100BF000AC6D1203478F708E6F8D6E8C6DAF70AEC3
:100C00006FAD6EAC6D120A1FAB74AA73A972A87196
:100C10001200FB120D858F748E738D728C71E576C8
:100C200030E00B1203478F748E738D728C71AF742A
:070C3000AE73AD72AC71223E
:10027600E9D2E7C933E833F892D5EDD2E7CD33ECCE
:0702860033FC5002B2D52247
:10028D00EC30E7100FBF000C0EBE00080DBD0004D2
:10029D000BEB6014A2D5EB13FCED92E7FD2274FF7E
:1002AD00FCFDFEFF22E480F8A2D574FF13FC7D80D7
:0302BD00E480EFEB
:1002C000ED33EC33601004700FED547F7005740251
:0A02D00092E0227404220422E422CA
:1002DA0074F8CC6480CCC86480C8F582046043C3D7
:1002EA00EB9FF5F0EA9E42F0E99D42F0E89C45F06A
:1002FA0060305018E5825FFFE582F42B5582FB508F
:10030A00210ABA001D09B90019088016E5825BFBAB
:10031A00E582F42F5582FF50090EBE00050DBD007F
:10032A00010CC3EB9FF5F0EA9E42F0E99D42F0E82A
:0D033A009C45F06007CC4820E701B3EC22A1
:10034700ED33EC33600A047003BD8004ECB2E7FCC4
:010357002283
:100D4D0033DA929E35B16011377FE5FE3921848902
:100D5D003AAEC3FF3C1D955B3D6358473E75FDF0B4
:100D6D003F3172183F800000C2D50202B50202ABBE
:100D7D00BD80FA50F30202B2ED33EC330460F17B27
:100D8D003B7AAA79B8783F1200FBED33EC3392D55C
:100D9D00247B5011A2D570DB500BED448024045000
:100DAD0004A2D580CEEFFBEEFAEDF9ECF812023F7E
:100DBD00EFF582F404FC12020B12000AC082900DB2
:100DCD004D7409120407ED33CC33D0F092D525F0D4
:0A0DDD00A2D57001C313CC13FD2250
:1009EB003E9248DA3ECCCCCD3F2AAAAB4000000069
:1009FB003F8000003F9837F03FB504F33FD744FCEE
:100A0B003E3172173EB172173F0515913EDE5BD931
:100A1B00D2008002C200EDD2E7F8CD33EC33047084
:100A2B000BBD800592D50202B50202AB40FBD3147D
:100A3B0060F2F5F07C3FEE7A00C39496C8948B403D
:100A4B00230AC89469C8941A401A0AC89468C894AF
:100A5B001F40110AC8945AC89425400805F07A0023
:100A6B00CDC2E7CDC0F08C1C8D1D8E1E8F1FEA23CF
:100A7B0023C0E024FBF582E43409F5831206161239
:100A8B00000AECC0E0EDC0E0EEC0E0EFC0E0120603
:100A9B0006A81CA91DAA1EAB1F120006D0E0FBD096
:100AAB00E0FAD0E0F9D0E0B2E7F812035B8C1C8DD2
:100ABB001D8E1E8F1F9009EB74031203F8A81CA93F
:100ACB001DAA1EAB1F1200FBD0E0600F2407F5829E
:100ADB00E4340AF58312061612000A8C1C8D1D8E47
:100AEB001E8F1FD0E0C3947FFDE49400FC1202061E
:100AFB007B187A727931783F1200FBA81CA91DAACA
:100B0B001EAB1F12000A30000B7BD97A5B79DE78A3
:050B1B003E1200FB2268
:100358000202B5EC5D046005E8590470030202ABC3
:10036800120276580460F6EC4860F2EC7004FDFE68
:10037800FF22C860DB2481C85009C3986002500678
:100388000202B29850CAF582E9294B4A7005AB823D
:100398000202A175F0007C1A7880C3EF9BEE9AEDFB
:1003A80099400DC3EF9BFFEE9AFEED99FDE842F0F0
:1003B800DC23ACF0D0E0FFD0E0FED0E0FDAB822043
:1003C800E7101BEB60BAEC2CFCEF33FFEE33FEEDCD
:1003D80033FD02028DE803F830E705C0F075F00040
:1003E800EF2FFFEE33FEED33FD40B830E7C280AAB1
:1003F800C0E0EFFBEEFAEDF9ECF81200FBD0E0F507
:10040800F0EFFBEEFAEDF9ECF8120606A3A3A3A3AE
:10041800E8C0E0E9C0E0EAC0E0EBC0E0C0F01200EC
:10042800FB120616A3A3A3A312000AD0F0D0E0FB88
:0D043800D0E0FAD0E0F9D0E0F8D5F0D42201
:03000000020DE707
:0C0DE700787FE4F6D8FD75817E020E2EA8
:10044500E709F608DFFA8046E709F208DFFA803E99
:1004550088828C83E709F0A3DFFA8032E309F60886
:10046500DFFA8078E309F208DFFA807088828C83EE
:10047500E309F0A3DFFA806489828A83E0A3F608A2
:10048500DFFA805889828A83E0A3F208DFFA804C7C
:1004950080D280FA80C680D4806980F28033801053
:1004A50080A680EA809A80A880DA80E280CA8033BC
:1004B50089828A83ECFAE493A3C8C582C8CCC58334
:1004C500CCF0A3C8C582C8CCC583CCDFE9DEE78004
:1004D5000D89828A83E493A3F608DFF9ECFAA9F083
:1004E500EDFB2289828A83ECFAE0A3C8C582C8CCD9
:1004F500C583CCF0A3C8C582C8CCC583CCDFEADEF2
:10050500E880DB89828A83E493A3F208DFF980CC53
:1005150088F0EF60010E4E60C388F0ED2402B4044C
:100525000050B9F582EB2402B4040050AF232345F3
:060535008223900495737F
:10053B00BB010689828A83E0225002E722BBFE02BE
:09054B00E32289828A83E49322F1
:10055400BC000BBE0029EF8DF084FFADF022E4CC8B
:10056400F875F008EF2FFFEE33FEEC33FCEE9DEC54
:10057400984005FCEE9DFE0FD5F0E9E4CEFD22ED9A
:10058400F8F5F0EE8420D21CFEADF075F008EF2FE4
:10059400FFED33FD4007985006D5F0F222C398FDD5
:0505A4000FD5F0EA2272
:1005A900E88FF0A4CC8BF0A42CFCE98EF0A42CFCF1
:1005B9008AF0EDA42CFCEA8EF0A4CDA8F08BF0A46F
:1005C9002DCC3825F0FDE98FF0A42CCD35F0FCEBCE
:1005D9008EF0A4FEA9F0EB8FF0A4CFC5F02ECD3993
:0F05E900FEE43CFCEAA42DCE35F0FDE43CFC2200
:100F2B00C2D5E830E70FB2D5E4C39BFBE49AFAE4F1
:100F3B0099F9E498F8EC30E717B2D5120F61120665
:100F4B008EE4C39BFBE49AFAE499F9E498F88003E6
:100F5B0012068E30D50DE4C39FFFE49EFEE49DFD8B
:040F6B00E49CFC22E4
:0E05F800C3E49FFFE49EFEE49DFDE49CFC2214
:10060600E493FC740193FD740293FE740393FF223A
:10061600E493F8740193F9740293FA740393FB223A
:10062600EF4E6012EF60010EEDBB010B89828A83EB
:10063600F0A3DFFCDEFA2289F05007F709DFFCA9F8
:0C064600F022BBFEFCF309DFFCA9F0224F
:100DF300020C37E493A3F8E493A34003F68001F2D3
:100E030008DFF48029E493A3F85407240CC8C33300
:100E1300C4540F4420C8834004F456800146F6DFCF
:100E2300E4800B0102040810204080900FD7E47E79
:100E3300019360BCA3FF543F30E509541FFEE493C4
:100E4300A360010ECF54C025E060A840B8E493A38B
:100E5300FAE493A3F8E493A3C8C582C8CAC583CAB6
:100E6300F0A3C8C582C8CAC583CADFE9DEE780BE6E
:0110040000EB
:1006520075F008758200EF2FFFEE33FECD33CDCC5F
:1006620033CCC58233C5829BED9AEC99E5829840E2
:100672000CF582EE9BFEED9AFDEC99FC0FD5F0D6BF
:10068200E4CEFBE4CDFAE4CCF9A88222B800C1B9E9
:100692000059BA002DEC8BF084CFCECDFCE5F0CB27
:1006A200F97818EF2FFFEE33FEED33FDEC33FCEB60
:1006B20033FB10D703994004EB99FB0FD8E5E4F91B
:1006C200FA227818EF2FFFEE33FEED33FDEC33FC08
:1006D200C933C910D7059BE99A4007EC9BFCE99AFC
:1006E200F90FD8E0E4C9FAE4CCFB2275F010EF2F41
:1006F200FFEE33FEED33FDCC33CCC833C810D70741
:100702009BEC9AE899400AED9BFDEC9AFCE899F87B
:0E0712000FD5F0DAE4CDFBE4CCFAE4C8F9220E
:00000001FF
